:10000000787E0120AD400000A5400000A540000022
:1000100000000000000000000000000000000000E0
:10002000000000000000000000000000A5400000EB
:100030000000000000000000A5400000A5400000F6
:10004000E1220020F72200200D230020232300209E
:10005000392300204F230020652300207B2300202C
:1000600091230020A7230020BD230020D3230020BC
:10007000E9230020FF230020152400202B2400204A
:1000800041240020572400206D24002083240020D8
:1000900099240020AF240020C5240020DB24002068
:1000A000F1240020072500201D25002033250020F5
:1000B000492500205F250020752500208B25002084
:1000C000FFFFFFFFFFFFFFFFFFFFFFFFFFFFFFFF40
:1000D000FFFFFFFFFFFFFFFFFFFFFFFFFFFFFFFF30
:1000E000FFFFFFFFFFFFFFFFFFFFFFFFFFFFFFFF20
:1000F000FFFFFFFFFFFFFFFFFFFFFFFFFFFFFFFF10
:100430000000000000000000FFFF0000FFFFFFFFC2
:10044000FFFFFFFFFFFFFFFFFFFFFFFFFFFFFFFFBC
:10045000FFFFFFFFFFFFFFFFFFFFFFFFFFFFFFFFAC
:10046000FFFFFFFFFFFFFFFFFFFFFFFFFFFFFFFF9C
:10047000FFFFFFFFFFFFFFFFFFFFFFFFFFFFFFFF8C
:10048000FFFFFFFFFFFFFFFFFFFFFFFFFFFFFFFF7C
:10049000FFFFFFFFFFFFFFFFFFFFFFFFFFFFFFFF6C
:1004A000FFFFFFFFFFFFFFFFFFFFFFFFFFFFFFFF5C
:1004B000FFFFFFFFFFFFFFFFFFFFFFFFFFFFFFFF4C
:1004C000FFFFFFFFFFFFFFFFFFFFFFFFFFFFFFFF3C
:1004D000FFFFFFFFFFFFFFFFFFFFFFFFFFFFFFFF2C
:1004E000FFFFFFFFFFFFFFFFFFFFFFFFFFFFFFFF1C
:1004F000FFFFFFFFFFFFFFFFFFFFFFFFFFFFFFFF0C
:10050000FFFFFFFFFFFFFFFFFFFFFFFFFFFFFFFFFB
:10051000FFFFFFFFFFFFFFFFFFFFFFFFFFFFFFFFEB
:10052000FFFFFFFFFFFFFFFFFFFFFFFFFFFFFFFFDB
:10053000FFFFFFFFFFFFFFFFFFFFFFFF10B5064CB0
:100540002378002B07D1054B002B02D00448AFF3D2
:1005500000800123237010BD603A012000000000DC
:1005600014890020044B10B5002B03D00349044824
:10057000AFF3008010BDC04600000000643A0120C7
:100580001489002080B582B000AF78607B68002BB2
:1005900001D100231EE07B6870220021180000F0CA
:1005A0002FFB7B680D4A1A607B680D4A5A607B6896
:1005B0000C4A9A607B680C4ADA607B680B4A1A61C5
:1005C0007B680B4A5A617B680A4A9A617B680A4ACF
:1005D000DA6101231800BD4602B080BD67E6096AF2
:1005E00085AE67BB72F36E3C3AF54FA57F520E5154
:1005F0008C68059BABD9831F19CDE05B80B584B0B7
:1006000000AFF860B9607A60FB68002B02D0BB686D
:10061000002B01D1002332E07B68002B29D101237C
:100620002DE0BA68531CBB60FB689B6E581CF968D0
:1006300088661078FA682821D3185B18021C1A7093
:10064000FB689B6E3F2B14D9FA68FB6828331900AE
:10065000100000F049F9FB6800229A66FB681A6AEC
:100660005B6A80208000002112184B41F9680A6201
:100670004B627B685A1E7A60002BD2D1012318008E
:10068000BD4604B080BDB0B592B000AFF863B963A9
:10069000FB6B002B02D0BB6B002B01D10023E1E0F0
:1006A000BB6B186A596ABB6B9B6EDB001C00002396
:1006B0001D0002000B0012196B41B96B0A624B62FC
:1006C000BB6B996E4A1CBB6B9A66BB6B28225B188E
:1006D0009A1880231370BB6B9B6E382B17D9BB6B9A
:1006E00028331A00BB6B9B6ED018BB6B9A6E4023ED
:1006F0009B1A1A00002100F083FABA6BBB6B2833F7
:100700001900100000F0F0F8BA6B00239366BB6B81
:1007100028331A00BB6B9B6ED018BB6B9A6E3823C4
:100720009B1A1A00002100F06BFABB6B1A6A5B6A15
:10073000D3B2B96B67228B54BB6B1A6A5B6A19061A
:10074000100A3863386B084338631B0A7B63302315
:10075000FB181B78B96B66228B54BB6B1A6A5B6AF9
:100760001904100CB862B86A0843B8621B0CFB622B
:100770002823FB181B78BA6B65215354BB6B1A6A8C
:100780005B6A1902100E3862386A084338621B0E21
:100790007B622023FB181978BB6B64229954BB6BD6
:1007A0001A6A5B6A1B00BB610023FB61397EBB6B6D
:1007B00063229954BB6B1A6A5B6A1B0A3B61002374
:1007C0007B61397CBB6B62229954BB6B1A6A5B6A92
:1007D0001B0CBB600023FB60397ABB6B6122995410
:1007E000BB6B1A6A5B6A1B0E3B6000237B60397827
:1007F000BB6B60229954BA6BBB6B28331900100095
:1008000000F072F800237B6422E0BB6B7A6C9200EC
:10081000D3583B643B6C190EFB6B5A1CFA63CAB28B
:100820001A703B6C190CFB6B5A1CFA63CAB21A7033
:100830003B6C190AFB6B5A1CFA63CAB21A70FB6B49
:100840005A1CFA633A6CD2B21A707B6C01337B6427
:100850007B6C072BD9D9BB6B70220021180000F0EC
:10086000CFF901231800BD4612B0B0BD80B582B0EB
:1008700000AF786039607A683B68DA41130018008D
:10088000BD4602B080BD80B584B000AF7860002363
:10089000FB607B681B68591C7A6811601B781B061B
:1008A000FB607B681B68591C7A6811601B781B040D
:1008B000FA681343FB607B681B68591C7A681160F7
:1008C0001B781B02FA681343FB607B681B68591C8A
:1008D0007A6811601B781A00FB681343FB60FB68A1
:1008E0001800BD4604B080BDB0B5A0B000AF7860C0
:1008F00039607B681B68FB677B685B68BB677B68EC
:100900009B687B677B68DB683B677B681B69FB6672
:100910007B685B69BB667B689B697B667B68DB6920
:100920003B660023FB656FE03B001800FFF7ABFF61
:100930000300BB6408203B18FA6D9200B96CD150DB
:100940003B18FA6D9200D3583B65FB6E06211800E8
:10095000FFF78CFF0400FB6E0B211800FFF786FFEA
:1009600003005C40FB6E19211800FFF77FFF0300B6
:1009700022005A403B6ED218FB6EB96E1940FB6ED6
:10098000DB43786E03404B40D2189C4BF96D8900D5
:10099000CB58D3183A6DD3183B65FB6F0221180072
:1009A000FFF764FF0400FB6F0D211800FFF75EFFE7
:1009B00003005C40FB6F16211800FFF757FF030090
:1009C00022005A40B96F7B6F4B40F96F1940BB6FE3
:1009D000786F03404B40D318FB647B6E3B66BB6E65
:1009E0007B66FB6EBB663A6F3B6DD318FB667B6F15
:1009F0003B67BB6F7B67FB6FBB673A6DFB6CD318C4
:100A0000FB67FB6D0133FB65FB6D0F2B8CD9AFE0F2
:100A1000FB6D01330F221A4008257B199200D35831
:100A2000BB65BB6D07211800FFF720FF0400BB6DFD
:100A300012211800FFF71AFF030022005A40BB6D75
:100A4000DB085340BB65FB6D0E330F221A407B1948
:100A50009200D3587B657B6D11211800FFF706FFCC
:100A600004007B6D13211800FFF700FF0300220034
:100A70005A407B6D9B0A53407B65FB6D0F221A40E9
:100A80007B199200D158BA6D7B6DD218FB6D09337A
:100A90000F2018407B198000C358D218FB6D0F201F
:100AA000034088187A19990088507A199B009B583E
:100AB0003B65FB6E06211800FFF7D8FE0400FB6EB5
:100AC0000B211800FFF7D2FE03005C40FB6E1921DA
:100AD0001800FFF7CBFE030022005A403B6ED218ED
:100AE000FB6EB96E1940FB6EDB43786E03404B40E2
:100AF000D218424BF96D8900CB58D3183A6DD318F0
:100B00003B65FB6F02211800FFF7B0FE0400FB6F8E
:100B10000D211800FFF7AAFE03005C40FB6F1621B1
:100B20001800FFF7A3FE030022005A40B96F7B6F45
:100B30004B40F96F1940BB6F786F03404B40D3189F
:100B4000FB647B6E3B66BB6E7B66FB6EBB663A6F7F
:100B50003B6DD318FB667B6F3B67BB6F7B67FB6F9F
:100B6000BB673A6DFB6CD318FB67FB6D0133FB650C
:100B7000FB6D3F2B00D84BE77B681A68FB6FD218E0
:100B80007B681A607B68043319687B680433BA6F2A
:100B90008A181A607B68083319687B6808337A6F93
:100BA0008A181A607B680C3319687B680C333A6FBB
:100BB0008A181A607B68103319687B681033FA6EE4
:100BC0008A181A607B68143319687B681433BA6E0C
:100BD0008A181A607B68183319687B6818337A6E34
:100BE0008A181A607B681C3319687B681C333A6E5C
:100BF0008A181A60C046BD4620B0B0BD204400002F
:100C000080B584B000AFF8607A600B203B180A1CF6
:100C10001A703B1819787A68FB68180003F0F0FB2B
:100C2000C046BD4604B080BD80B500AF00F00CF9F1
:100C300000F08AF800F062F9002003F0E9FB174B9E
:100C40009B68174A10009847031E00D0FEE7134B1D
:100C50001B6902209847031E00D0FEE70F4B9B6ADA
:100C6000E1225202110001209847031E00D0FEE746
:100C70000A4B9B6A012115209847084B9B6A01216A
:100C800016209847054B9B6980225101054A1000A8
:100C9000984703F079FBC046BD4680BD3053000045
:100CA000254B0020384E012080B582B000AF074BA5
:100CB000DB6A984703007B607B68DB07DB0FDBB2F6
:100CC000012BF4D0C046BD4602B080BD30530000B9
:100CD00090B585B000AF786039607B68DAB20C24DB
:100CE0003B191A70FFF7E0FF054B5B693A190121C8
:100CF000100098477B681800BD4605B090BDC046FF
:100D00003053000080B5A0B000AFF860B9607A60E1
:100D10000023FB670EE0BA68FB6FD3181B785BB249
:100D20001A001423FB1819001000FFF7D1FFFB6F06
:100D30000133FB677B68FA6F9A42ECD37B6818003B
:100D4000BD4620B080BDFFFF80B500AF094B1B78CA
:100D5000002B0BD1074B01221A7000F00FF800F0A6
:100D600025F800F03BF8044B01221A70C046BD463E
:100D700080BDC046BC3A0120BD3A012080B582B09A
:100D800000AF00237B6007E0074B7A6892000021E8
:100D9000D1507B6801337B607B681F2BF4D9C04640
:100DA000C046BD4602B080BDC03A012080B582B0C9
:100DB00000AF00237B6007E0074A7B68D31800225E
:100DC0001A707B6801337B607B682F2BF4D9C04697
:100DD000C046BD4602B080BD8C3A012080B582B0CD
:100DE00000AF00237B6007E0074B7A6852000021C8
:100DF000D1527B6801337B607B68042BF4D9C046F9
:100E0000C046BD4602B080BD7C3A012080B586B0A8
:100E100000AFF860B9607A60FB687B61BB683B61DA
:100E200007E03A69531C3B617B69591C7961127870
:100E30001A707B685A1E7A60002BF2D1FB6818008A
:100E4000BD4606B080BDFFFF80B584B000AF1E4B2D
:100E5000FB601E4BBB601E4B7B607A68F968BB6809
:100E60001800FFF7D3FF1B4BFB601B4BBB601B4AFB
:100E7000194BD31A7B607A68F968BB681800FFF7D2
:100E8000C5FF174BFB60174BBB60174A154BD31AB6
:100E90007B607A68F968BB681800FFF7B7FF134BEF
:100EA000FB60134BBB60134A114BD31A7B607A680B
:100EB000F968BB681800FFF7A9FF0F4B034A9A6057
:100EC000C046BD4604B080BD000000000004002004
:100ED000C0000000445D0000D81100207084002094
:100EE000DCCF0000708400201489002080D4000032
:100EF00018890020603A012000ED00E080B500AFC5
:100F00000A4B1B78DBB2002B0CD1084B01221A7064
:100F1000074B00221A70074B00221A70064B002262
:100F20001A70C046C046BD4680BDC046403B012049
:100F3000413B0120423B0120433B012080B500AFF3
:100F40001F2003F059FA031E01D0012307E01920E6
:100F500003F04EFA031E01D0012300E00023180025
:100F6000BD4680BD90B589B000AF78601B23FB18EB
:100F700004221A70874B00221A72C046854B1B7AD6
:100F8000DB07DB0FDBB2002BF8D1C046814B1B7AAD
:100F90009B07DB0FDBB2002BF8D17E4B00229A724D
:100FA0007C4A537A07218B4353720C23FB18180099
:100FB00003F012FAFB68784A934219D8754A537ABB
:100FC00070218B43191C10230B4353727A68130052
:100FD0009B009B185B001A00FA239900100003F095
:100FE000DFF903001A00FB68DB085343FB6114E0E0
:100FF000684A537A70218B4353727A6813009B00BE
:101000009B185B001A00FA239900100003F0C8F93E
:1010100003001A00FB685343FB61FB699BB25D4A06
:10102000013B9BB213801B23FB181B785BB218009B
:1010300003F0DAF9031E01D00123A6E013217B1887
:101040001B22BA1812781A707B181B787F2B0AD8CB
:101050007B181B781A001F231340504901229A4025
:10106000C0235B00CA50C04619203B181B22BA1887
:1010700012781A7002237B613B181B787F2B29D8CA
:10108000464A3B181B785BB29B08C0339B009B58B9
:101090003A181278110003220A40D200FF21914031
:1010A0000A00D2431A4011007B699B01FF221A40BB
:1010B00004003B181B78180003230340DB009A4010
:1010C00036483B191B785BB29B080A43C0339B0030
:1010D0001A5033E0324A19203B181B7819000F23AD
:1010E0000B40083B9B0806339B00D31804331B6856
:1010F0003A181278110003220A40D200FF219140D1
:101100000A00D2431A4011007B699B01FF221A405A
:1011100004003B181B78180003230340DB009A40AF
:101120001F483B191B781C000F232340083B9B08DA
:101130000A4306339B00C31804331A60C0461A21C1
:101140007B181B22BA1812781A707B181B787F2B19
:1011500009D87B181B781A001F231A400F4B012156
:1011600091400A001A60C0460E4A1B23FB181B78E8
:101170005BB20621180003F04FF9031E01D00123D2
:1011800003E0044B01221A7200231800BD4609B087
:1011900090BDC04600410840FF083D0000E100E06E
:1011A00000ED00E0B137002080B582B000AFFB1D3C
:1011B00004221A701F4B00221A72BB1DFA1D1278EE
:1011C0001A70BB1D1B787F2B10D8BB1D1B781A0013
:1011D0001F231340184901229A40130080228B508C
:1011E000BFF34F8FC046BFF36F8FC046C046FB1D95
:1011F0001B785BB2180003F0F7F8031E01D001233F
:1012000014E07B1DFA1D12781A707B1D1B787F2B52
:101210000AD87B1D1B781A001F23134006490122A0
:101220009A40C0235B00CA50C04600231800BD4648
:1012300002B080BD0041084000E100E080B500AF91
:10124000192003F0A5F8031E01D0012303E01F209D
:1012500003F0BAF800231800BD4680BDB0B5AAB0AF
:1012600000AFF860B9607A603B6001235B42A4255F
:101270007A191360144A7B681100180003F08CF887
:10128000031E1AD130243B191800FFF77BF9F968C7
:10129000BA683B191800FFF7B1F93A1910243B1945
:1012A00011001800FFF7EFF939193B6820221800E8
:1012B00003F0AAF803007A191360A423FB181B6833
:1012C0001800BD462AB0B0BD4845000080B582B0C8
:1012D00000AF0200FB1D1A70BB1D0A1C1A70BB1D5B
:1012E0001B78032B20D027DC022B15D024DC002B0D
:1012F00002D0012B08D01FE0FB1D1A78154B1100FE
:10130000180003F055F818E0FB1D1A78124B110075
:10131000180003F04DF810E0FB1D1A780F4B110078
:10132000180003F045F808E0FB1D1A780C4B11007B
:10133000180003F03DF800E0C0460A4B180003F027
:101340004FF8C82003F038F801231800BD4602B05A
:1013500080BDC046C84D0000F04D00001C4E00008E
:10136000444E00008045000080B582B000AF786038
:10137000054A7B681100180000F0ECF80300180023
:10138000BD4602B080BDC046AC86002080B500AF2F
:10139000034B180000F0CEF903001800BD4680BDD5
:1013A000AC86002080B582B000AF0200FB1D1A7031
:1013B000054AFB1D1B781100180000F027FB0300F5
:1013C0001800BD4602B080BDAC86002080B582B05A
:1013D00000AF78603960054A39687B68180000F012
:1013E00077FB03001800BD4602B080BDAC8600202C
:1013F00080B582B000AF78603960054A39687B6893
:10140000180000F0CDFB03001800BD4602B080BDFF
:10141000AC86002080B584B000AFF860B9607A6017
:10142000054B7A68B968F86800F046FC03001800BC
:10143000BD4604B080BDC046AC86002080B500AF7C
:10144000034B180000F0C6FC03001800BD4680BD29
:10145000AC86002080B500AF034B180000F0D2FC32
:1014600003001800BD4680BDAC86002080B582B068
:1014700000AF78603960054A39687B68180000F071
:10148000D5FC03001800BD4602B080BDAC8600202C
:1014900080B500AF034B180001F034F903001800C9
:1014A000BD4680BDAC86002080B500AF034B180060
:1014B00001F005FA03001800BD4680BDAC8600208F
:1014C00080B582B000AF0200FB1D1A70054AFB1DFB
:1014D0001B781100180001F084F903001800BD46C4
:1014E00002B080BDAC86002080B582B000AF3B1D4D
:1014F000094A12681A603A1D002311880904090C70
:101500001B0C1B040B43528812041B041B0C1343BB
:101510001800BD4602B080BD6C50000080B500AF21
:1015200000230122134302221343042213432022E7
:10153000134340221343802213438022520013435B
:101540008022120113438022520113431800BD462A
:1015500080BDFFFF90B587B000AF78603960002391
:101560007B610C23FB1801221A803B68DB689B8D92
:101570001A000123134001D00023D5E03A680C245F
:101580003B191100180002F017FB03007B617B6917
:10159000002B07D13A683B191100180002F0E8FB54
:1015A00003007B610C23FB1800229B5E012B02D100
:1015B00001235B427B617B69002B09D13B689B7FE8
:1015C000180002F019FF031E02D001235B427B6169
:1015D0007B69002B00D0A6E03B68DB687A681A6064
:1015E0003B68DB6800221A713B68DB6800225A7195
:1015F0003B68DB6800229A713B68DB680022DA7185
:101600003B68DB6800229A613B68DB68232200218B
:1016100099543B68DB68FF221A843B68DB68002230
:10162000DA613B68DB682A22002199540C23FB18FD
:1016300000229A5E3B68DB6892B29A853B68202262
:101640009A560F243B191A703B191B785BB21F2B5B
:101650001ADC3B191B785BB2180002F0C5FE0E21A4
:101660007B183A1912781A707B181B787F2B0AD8CE
:101670007B181B781A001F2313402D4901229A4022
:10168000C0235B00CA50C046C0463B6821229A5620
:1016900011243B191A703B191B785BB21F2B1ADC03
:1016A0003B191B785BB2180002F09EFE10217B18DC
:1016B0003A1912781A707B181B787F2B0AD87B187E
:1016C0001B781A001F231340194901229A40C02396
:1016D0005B00CA50C046C0463B6822229A5613247B
:1016E0003B191A703B191B785BB21F2B1ADC3B1994
:1016F0001B785BB2180002F077FE12217B183A19B2
:1017000012781A707B181B787F2B0AD87B181B78ED
:101710001A001F231340064901229A40C0235B0090
:10172000CA50C046C0467B691800BD4607B090BD90
:1017300000E100E090B587B000AF786000237B61E6
:101740007B68DB689B8D1A000123134001D10023C5
:1017500055E17B68DB689B8D1A000823134004D198
:101760007B68DB7F180002F043FE7B6820229A56DC
:1017700009217B181A700A00BB181B785BB21F2B5B
:101780001ADC08217B18BA1812781A707B181B789B
:101790007F2B10D87B181B781A001F2313409A49FF
:1017A00001229A40130080228B50BFF34F8FC04616
:1017B000BFF36F8FC046C046C0467B6821229A5651
:1017C0000B217B181A700A00BB181B785BB21F2B09
:1017D0001ADC0A217B18BA1812781A707B181B7849
:1017E0007F2B10D87B181B781A001F2313408649C3
:1017F00001229A40130080228B50BFF34F8FC046C6
:10180000BFF36F8FC046C046C0467B6822229A56FF
:101810000D217B181A700A00BB181B785BB21F2BB6
:101820001ADC0C217B18BA1812781A707B181B78F6
:101830007F2B10D87B181B781A001F231340724986
:1018400001229A40130080228B50BFF34F8FC04675
:10185000BFF36F8FC046C046C0467B681B6800223E
:101860009A707B681B6800221A707B681B681B7962
:10187000DAB27B681B687B218A43D2B21A717B681B
:101880001B68F2229A717B681B68FF225A707B6882
:101890001B680022DA717B681B68FF229A747B68E0
:1018A0001B6800221A727B681B6800225A727B68D0
:1018B0001B6800229A727B681B680022DA727B68C0
:1018C0001B6800225A737B681B6800225A837B685E
:1018D0001B684022DA747B681B6803221A777B68D6
:1018E00020229A560F243B191A703B191B785BB2C1
:1018F0001F2B1ADC3B191B785BB2180002F074FD39
:101900000E217B183A1912781A707B181B787F2BDE
:101910000AD87B181B781A001F2313403A4901226A
:101920009A40C0235B00CA50C046C0467B68212253
:101930009A5611243B191A703B191B785BB21F2B66
:101940001ADC3B191B785BB2180002F04DFD102128
:101950007B183A1912781A707B181B787F2B0AD8DB
:101960007B181B781A001F231340274901229A4035
:10197000C0235B00CA50C046C0467B6822229A56EC
:1019800013243B191A703B191B785BB21F2B1ADC0E
:101990003B191B785BB2180002F026FD12217B1860
:1019A0003A1912781A707B181B787F2B0AD87B188B
:1019B0001B781A001F231340134901229A40C023A9
:1019C0005B00CA50C046C0467B689B6898477B68EE
:1019D000DB7F180002F0DCFC7B68DB6800229A8564
:1019E0007B68DB6800221A717B68DB682322002198
:1019F00099547B689B7F180002F0E6FC7B69180015
:101A0000BD4607B090BDC04600E100E080B584B09F
:101A100000AF02003960FB1D1A700023FB603B68B9
:101A2000DB689B8D1A000123134002D101235B4226
:101A300049E0FB1D1B78002B02D0022B21D03CE09B
:101A40003B68DB689B8D1A002023134006D13B685E
:101A5000DB689B8D1A004023134003D03B681800BD
:101A600001F07AFF3B68DB7F180002F091FC3B68D5
:101A7000DB689A8D3B68DB6808218A4392B29A85BD
:101A800020E03B68DB689B8D1A000823134018D1C7
:101A90003B68DB7F180002F0ABFC031E03D0012380
:101AA0005B42FB600EE03B68DB689A8D3B68DB685D
:101AB00008210A4392B29A8504E004235B42FB604A
:101AC00000E0C046FB681800BD4604B080BDFFFFC3
:101AD00080B586B000AFF860B9607A60FB68002B13
:101AE00002D0BB68002B02D105235B4251E07B682A
:101AF000DB689B8D1A002023134002D101235B4237
:101B000047E07B68DB6823229B5C012B02D1022328
:101B10005B423EE07B68DB6828229B5C002B07D0A1
:101B20007B68DB681B79012B02D102235B4230E02A
:101B30007B68DB68FA685A617B68DB68BA68DA60E0
:101B40007B68DB680022DA617B68DB682422002185
:101B500099547B68DB6B002B1AD17B68DB682322EE
:101B6000012199547B6820229A5617217B181A70FC
:101B70000A00BB181B787F2B09D8BB181B781A00EA
:101B80001F231A40054B012191400A001A60C046EC
:101B900000231800BD4606B080BDC04600E100E04D
:101BA00080B586B000AFF860B9607A60FB68002B42
:101BB00002D0BB68002B02D105235B4275E07B6835
:101BC000DB689B8D1A004023134002D101235B4246
:101BD0006BE07B68DB681B79012B02D102235B423F
:101BE00063E07B68DB6828229B5C002B08D07B6865
:101BF000DB6823229B5C012B02D102235B4254E071
:101C00007B68DB68FA681A617B68DB68BA689A608F
:101C10007B68DB6800229A617B68DB6800225A716E
:101C20007B68DB6800229A717B68DB680022DA71CE
:101C30007B685B6C002B08D17B68DB682422012168
:101C400099547B68DB6801221A717B68DB68282263
:101C50009B5C012B28D17B68DB689B8D1A002023BD
:101C6000134021D07B68DB68BA68DA607B68DB6888
:101C70000022DA617B68DB6B002B15D17B682022A8
:101C80009A5617217B181A700A00BB181B787F2BF5
:101C900009D8BB181B781A001F231A40054B0121D5
:101CA00091400A001A60C04600231800BD4606B0E5
:101CB00080BDC04600E100E080B586B000AFF860AE
:101CC000B9607A603B60FB68002B05D0BB68002BD5
:101CD00002D07B68002B02D105235B4274E03B6895
:101CE000DB6828229B5C012B02D001235B426BE066
:101CF0003B68DB689B8D1A002023134006D03B68AD
:101D0000DB689B8D1A004023134002D101235B4204
:101D10005AE03B68DB681B79012B05D03B68DB6828
:101D200023229B5C012B02D102235B424CE03B68E7
:101D3000DB68BA681A613B68DB687A689A603B685E
:101D4000DB6800229A613B68DB68FA685A613B688D
:101D5000DB687A68DA603B68DB680022DA613B683E
:101D6000DB682422022199543B68DB6800225A7107
:101D70003B68DB6800229A713B68DB680022DA71FD
:101D80003B68DB6B002B1ED13B68DB6801221A71BC
:101D90003B68DB682322012199543B6820229A5634
:101DA00017217B181A700A00BB181B787F2B09D8E3
:101DB000BB181B781A001F231A40054B01219140C4
:101DC0000A001A60C04600231800BD4606B080BD58
:101DD00000E100E080B584B000AF78600023FB60D4
:101DE0007B68DB6B002B04D07B68DB68DB68012B36
:101DF00003D17B68DB68DB69FB60FB681800BD46CC
:101E000004B080BD80B584B000AF78600023FB6073
:101E10007B685B6C002B03D17B68DB689B69FB6094
:101E2000FB681800BD4604B080BDFFFF90B58DB0C3
:101E300000AFF860B9607A600023FB627B68DB6802
:101E40009B8D1A000823134003D101235B4200F04D
:101E500053FC1423FB18180001F075FBFB68FF22EC
:101E600013401B2B01D900F03BFC9A00D34BD31835
:101E70001B689F467B68DB689B8D1A00102313400C
:101E80002DD1BB68002B2AD02B217B1807221A707A
:101E900014203B181B785BB27A181278012191400C
:101EA0000A0052B2D24352B213405BB2DAB23B18CC
:101EB0001A70C0467B68BA683918F86800F038FDB7
:101EC0000300FB62FB6A002B0ED17B68DB689A8DF6
:101ED0007B68DB6810210A4392B29A8504E00123F3
:101EE0005B42FB6200F007FC00F005FC7B68DB68EE
:101EF0009B8D1A001023134055D1BB68002B52D084
:101F000028217B1800221A7014203B185B785BB2E2
:101F10007A181278012191400A0052B2D24352B28B
:101F200013405BB2DAB23B185A70C04629217B18C5
:101F300001221A703B185B785BB27A181278012183
:101F400091400A0052B2D24352B213405BB2DAB2AD
:101F50003B185A70C0462A217B1807221A703B187A
:101F60001B785AB27B181B78012199400B005BB299
:101F700013435BB2DAB23B181A70C0467B68BA688A
:101F80003918F86800F048FF0300FB62FB6A002B79
:101F90000ED17B68DB689A8D7B68DB6810210A4371
:101FA00092B29A8504E001235B42FB6200F0A3FB3E
:101FB00000F0A1FB7B68DB689B8D1A0010231340A7
:101FC00053D125217B1800221A7014203B185B780E
:101FD0005BB27A181278012191400A0052B2D243C2
:101FE00052B213405BB2DAB23B185A70C046262197
:101FF0007B1801221A703B185B785AB27B181B7849
:10200000012199400B005BB213435BB2DAB23B187B
:102010005A70C04627217B1807221A703B181B787C
:102020005AB27B181B78012199400B005BB2134315
:102030005BB2DAB23B181A70C0467B683918F86890
:10204000002200F0E9FE0300FB62FB6A002B01D0D6
:1020500000F04AFB7B68DB689A8D7B68DB681021A7
:102060000A4392B29A8500F03FFB01235B42FB6278
:1020700000F03AFB7B6821229B561F2B04DC7B6817
:1020800022229B561F2B04DD01235B42FB6200F0E2
:1020900032FB7B68DB689B8D1A001023134040D114
:1020A000BB68002B3DD023217B1800221A7014201E
:1020B0003B18DB785AB27B181B78012199400B0042
:1020C0005BB213435BB2DAB23B18DA70C04624212C
:1020D0007B1807221A703B181B785BB27A181278AB
:1020E000012191400A0052B2D24352B213405BB276
:1020F000DAB23B181A70C0467B68BA683918F868BB
:1021000000F0F0FF0300FB62FB6A002B0DD17B683F
:10211000DB689A8D7B68DB6810210A4392B29A854E
:1021200003E001235B42FB62E5E2E4E207235B425A
:10213000FB62E0E2BB689AB27B68DB68FF210A4081
:1021400092B21A84D7E27B68DB689B8D1A00102359
:1021500013402ED07B68DB6828229B5C022B28D1A1
:102160007B68DB689B8D1A006023134021D17B685C
:10217000DB681B6BBA689A420BD17B681A6893784C
:1021800003218B43191C01230B4393700023FB6233
:1021900013E0BB68002B08D17B681A689378032191
:1021A0008B4393700023FB6207E001235B42FB62D9
:1021B00003E001235B42FB629DE29CE2C05200000F
:1021C0007B68DB689B8D1A00102313400FD07B685F
:1021D000DB6828229B5C022B09D1BB68012B02D152
:1021E0000023FB6207E001235B42FB6203E0012363
:1021F0005B42FB627FE27EE27B68DB689B8D1A00BC
:102200000223134003D101235B42FB6273E2BB68EC
:10221000012B28D17B68DB689B8D1A0010231340AB
:102220001DD07B68DB689B8D1A002023134000D0F3
:102230005CE27B68DB6828229B5C012B06D17B6813
:10224000DB689B8D1A004023134004D17B68180083
:1022500001F099F930E001235B42FB6246E2012381
:102260005B42FB6242E27B68DB689B8D1A001023B5
:1022700013401DD07B68DB689B8D1A002023134020
:1022800000D133E27B68DB6828229B5C012B06D1FE
:102290007B68DB689B8D1A004023134004D17B6868
:1022A000180001F0A0F907E001235B42FB621DE288
:1022B00001235B42FB6219E218E27B68DB689B8DBD
:1022C0001A000423134003D101235B42FB6212E294
:1022D000BB68012B28D17B68DB689B8D1A0010231B
:1022E00013401DD07B68DB689B8D1A004023134090
:1022F00000D0FDE17B68DB6828229B5C012B06D1C6
:102300007B68DB689B8D1A002023134004D17B6817
:10231000180001F0A7F930E001235B42FB62E7E11E
:1023200001235B42FB62E3E17B68DB689B8D1A0063
:10233000102313401DD07B68DB689B8D1A0040235F
:10234000134000D1D4E17B68DB6828229B5C002B22
:1023500006D07B68DB689B8D1A002023134004D1D4
:102360007B68180001F0CCF907E001235B42FB62B7
:10237000BEE101235B42FB62BAE1B9E17B68DB6845
:102380009B8D1A000223134006D07B68DB689B8D6F
:102390001A000423134003D101235B42FB62AAE12C
:1023A000BB68012B22D17B68DB689B8D1A00102350
:1023B000134017D07B68DB689B8D1A0060231340A5
:1023C000602B08D009D8202B01D0402B05D1012348
:1023D0005B42FB622DE0C0462BE07B68180001F0F9
:1023E0006DFA26E001235B42FB6284E17B68DB68D7
:1023F0009B8D1A001023134017D07B68DB689B8DE0
:102400001A0060231340602B08D00CD8202B01D079
:10241000402B08D101235B42FB620AE07B68180075
:1024200001F09AFA05E0C04603E001235B42FB623B
:1024300061E160E17B68DB689B8D1A00202313401B
:1024400062D07B68DB680022DA607B68DB6823226D
:10245000002199547B68180001F0BAFF7B681B6863
:102460009B78DAB21423FB185A707B68DB68282249
:102470009B5C012B05D07B68DB6828229B5C022BD0
:102480000AD17B681B689B78DAB27B681B680F21D6
:102490000A40D2B29A7009E07B681B689B78DAB276
:1024A0007B681B685F210A40D2B29A707B68202249
:1024B0009A5622243B191A703B191B785BB21F2BCA
:1024C0001ADC3B191B785BB2180001F08DFF21214B
:1024D0007B183A1912781A707B181B787F2B0AD850
:1024E0007B181B781A001F231340854901229A404C
:1024F000C0235B00CA50C046C0467B681B681422DC
:10250000BA1852789A70F6E001235B42FB62F2E05F
:102510007B68DB689B8D1A004023134076D07B6874
:10252000DB6800221A717B68180001F049FF7B68A4
:10253000DB6828229B5C012B4AD17B68DB68002288
:10254000DA607B68DB682322002199547B681800DD
:1025500001F03EFF7B681B689B78DAB21423FB18FE
:102560005A707B681B689B78DAB27B681B680F2106
:102570000A40D2B29A707B6820229A5620243B19D6
:102580001A703B191B785BB21F2B1ADC3B191B78A6
:102590005BB2180001F028FF1F217B183A1912784E
:1025A0001A707B181B787F2B0AD87B181B781A00AF
:1025B0001F231340524901229A40C0235B00CA5096
:1025C000C046C0467B681B681422BA1852789A70BD
:1025D0007B68DB6828229B5C022B00D08AE07B684A
:1025E0001B689B78DAB214203B185A707B681B6812
:1025F0009B78DAB27B681B6850218A43D2B29A700A
:102600007B681B683A1852789A7073E001235B422A
:10261000FB626FE07B68DB689B8D1A002023134010
:102620005AD07B68DB689B8D1A004023134053D03F
:102630007B68180001F0CCFE7B68DB6800221A7111
:102640007B68DB680022DA607B68DB68232200217C
:1026500099547B68180001F0B3FE7B681B689B7877
:10266000DAB21423FB185A707B681B689B78DAB2C5
:102670007B681B680F210A40D2B29A707B682022C7
:102680009A561E243B191A703B191B785BB21F2BFC
:102690001ADC3B191B785BB2180001F0A5FE1D2166
:1026A0007B183A1912781A707B181B787F2B0AD87E
:1026B0007B181B781A001F231340114901229A40EE
:1026C000C0235B00CA50C046C0467B681B6814220A
:1026D000BA1852789A700EE001235B42FB620AE05E
:1026E00001235B42FB6206E0C04604E0C04602E014
:1026F000C04600E0C046FB6A1800BD460DB090BD64
:1027000000E100E080B584B000AF78607B68DB68F2
:1027100023229B5C012B04D1FB6801221343FB6045
:1027200012E07B681B681B795B07DB0FDBB2DB43C6
:10273000DBB21A1C01231340DAB2FB6801210A4004
:1027400001218B431343FB607B68DB681B791A1CF8
:1027500001231340DAB2FB6801210A405200022132
:102760008B431343FB60FB6804229343FB607B684D
:10277000DB685B791A1C01231340DAB2FB68012184
:102780000A40D20008218B431343FB60FB681022F0
:102790009343FB607B68DB689B791A1C0123134021
:1027A000DAB2FB6801210A40520120218B43134316
:1027B000FB607B68DB68DB791A1C01231340DAB20B
:1027C000FB6801210A40920140218B431343FB60C7
:1027D000FB687F221340FB60FB681800BD4604B015
:1027E00080BD80B584B000AF02003960FB1D1A7057
:1027F0000023FB603B689B69002B02D101235B42F5
:1028000059E03B68DB689B8D1A001023134002D10E
:1028100001235B424FE0FB1D1B78002B02D0012BF4
:1028200023D043E03B68DB682A229B5C002B05D069
:102830003B68DB682A229B5C012B12D13B689B69B9
:102840001B881BB23A68127F110001228A4012B223
:10285000D24312B213401AB23B689B6992B21A80FB
:1028600028E001235B42FB6024E03B68DB682A220E
:102870009B5C002B05D03B68DB682A229B5C012B0C
:1028800010D13B689B691B881AB23B681B7F1900FB
:1028900001238B401BB213431AB23B689B6992B26F
:1028A0001A8007E001235B42FB6003E001235B42E7
:1028B000FB60C046FB681800BD4604B080BD80B513
:1028C00084B000AF7860FB6801229343FB607B68B3
:1028D000DB682A229B5C002B05D07B68DB682A2200
:1028E0009B5C022B12D17B681B69002B0ED07B688E
:1028F0001B691B881A007B681B7D1A41130001228B
:10290000134003D1FB6801221343FB60FB680222E2
:102910009343FB60FB6808229343FB60FB6804223F
:102920009343FB60FB681800BD4604B080BDFFFF09
:10293000B0B5A8B002AFF860B9607A603B60002320
:102940009422BA181360FA68E023DB001340E022F7
:10295000D20093420BD0E022D200934200D9A5E0EE
:10296000002B3BD08022520093426CD09EE0BB688B
:1029700088203A18136087217B1806221A703B18AA
:102980001B681B785AB27B181B78012199400B00F9
:102990005BB213435BB2DAB23B181B681A70C046D5
:1029A000BB68033390203A1813608F217B180422F0
:1029B0001A703B181B681B785AB27B181B780121D0
:1029C00099400B005BB213435BB2DAB23B181B6851
:1029D0001A70C046BB6800221A726DE0BB68BB6704
:1029E00077217B1806221A70BB6F1B785BB27A18AE
:1029F0001278012191400A0052B2D24352B21340E0
:102A00005BB2DAB2BB6F1A70C046BB68033380207A
:102A10003A1813607F217B1804221A703B181B6838
:102A20001B785AB27B181B78012199400B005BB2CE
:102A300013435BB2DAB23B181B681A70C046BB681E
:102A400001221A7238E0BB68BB6667217B18062238
:102A50001A70BB6E1B785BB27A1812780121914014
:102A60000A0052B2D24352B213405BB2DAB2BB6E2A
:102A70001A70C046BB6803333B676F217B18042282
:102A80001A703B6F1B785BB27A1812780121914063
:102A90000A0052B2D24352B213405BB2DAB23B6F79
:102AA0001A70C046BB6802221A7205E009235B4215
:102AB0009422BA181360C046FA68C0239B011340E1
:102AC0008022920193424FD080229201934276D885
:102AD000002B04D080225201934218D06FE0BB68D3
:102AE0003B665F217B1805221A703B6E1B785BB238
:102AF0007A181278012191400A0052B2D24352B2A0
:102B000013405BB2DAB23B6E1A70C0465DE0BB6840
:102B10003B654F217B1804221A703B6D1B785BB21A
:102B20007A181278012191400A0052B2D24352B26F
:102B300013405BB2DAB23B6D1A70C046BB68BB652E
:102B400057217B1805221A70BB6D1B785AB27B186F
:102B50001B78012199400B005BB213435BB2DAB2E0
:102B6000BB6D1A70C04630E0BB683B643F217B18E8
:102B700004221A703B6C1B785AB27B181B78012117
:102B800099400B005BB213435BB2DAB23B6C1A7034
:102B9000C046BB68BB6447217B1805221A70BB6C1A
:102BA0001B785AB27B181B78012199400B005BB24D
:102BB00013435BB2DAB2BB6C1A70C04605E00A235D
:102BC0005B429422BA181360C046FA68C0231B0205
:102BD000134004D08022D201934218D02DE0BB686C
:102BE000BB6337217B1803221A70BB6B1B785BB267
:102BF0007A181278012191400A0052B2D24352B29F
:102C000013405BB2DAB2BB6B1A70C0461BE0BB6804
:102C10003B632F217B1803221A703B6B1B785AB23F
:102C20007B181B78012199400B005BB213435BB208
:102C3000DAB23B6B1A70C04605E00B235B4294226C
:102C4000BA181360C046FA68C0239B021340802262
:102C50009202934242D080229202934258D8002B93
:102C600004D08022520293421CD051E0BB6805334D
:102C7000BB6227217B1801221A70BB6A1B785BB2EA
:102C80007A181278012191400A0052B2D24352B20E
:102C900013405BB2DAB2BB6A1A70C046BB6800224E
:102CA000DA713BE0BB6805333B621F217B180122D0
:102CB0001A703B6A1B785BB27A1812780121914036
:102CC0000A0052B2D24352B213405BB2DAB23B6A4C
:102CD0001A70C046BB680222DA711FE0BB68053378
:102CE000BB6117217B1801221A70BB691B785AB28D
:102CF0007B181B78012199400B005BB213435BB238
:102D0000DAB2BB691A70C046BB680122DA7105E00D
:102D10000C235B429422BA181360C04694257B1999
:102D20001B68002B0DD13B685A7F3A4B7968B86815
:102D3000012401940D24009400F0C6FA03007A19CE
:102D400013609423FB181B68002B5CD13B681A6846
:102D5000937820218B4393703B681A6893781021F5
:102D60008B4393703B681A6893787F210B40937074
:102D70003B681A68937840218B4393703B681A68CC
:102D8000937804218B4393703B681A6893780321EE
:102D90008B4393703B681A68537A01218B435372BB
:102DA0003B681B68BA6852795A733B681B68BA68FB
:102DB00012781A703B681B68BA68D2789A713B68BF
:102DC0001B68BA681279DA713B681B68BA68927836
:102DD0005A703B681B68BA6892799A743B68DB68E2
:102DE000BA68D1792A2299543B68DB68BA68117AAB
:102DF000292299543B68DB682822002199543B68BA
:102E0000DB687A681A639423FB181B681800BD46B8
:102E100026B0B0BD7050000090B597B002AFF8601A
:102E2000B9607A603B600023FB64FA68C0239B02B0
:102E3000134080229202934242D080229202934217
:102E400058D8002B04D08022520293421CD051E06B
:102E5000BB680533BB6447217B1801221A70BB6C29
:102E60001B785BB27A181278012191400A0052B2A5
:102E7000D24352B213405BB2DAB2BB6C1A70C04696
:102E8000BB680022DA7139E0BB6805333B643F213F
:102E90007B1801221A703B6C1B785BB27A1812788F
:102EA000012191400A0052B2D24352B213405BB2A8
:102EB000DAB23B6C1A70C046BB680222DA711DE0C0
:102EC000BB680533BB6337217B1801221A70BB6BCB
:102ED0001B785AB27B181B78012199400B005BB21A
:102EE00013435BB2DAB2BB6B1A70C046BB680122F7
:102EF000DA7103E00C235B42FB64C046FA6880236E
:102F0000DB02134004D08022D202934219D02FE07A
:102F1000BB6805333B632F217B1806221A703B6B7D
:102F20001B785BB27A181278012191400A0052B2E4
:102F3000D24352B213405BB2DAB23B6B1A70C04656
:102F40001AE0BB680533BB6227217B1806221A7082
:102F5000BB6A1B785AB27B181B78012199400B0081
:102F60005BB213435BB2DAB2BB6A1A70C04603E0CD
:102F700001235B42FB64C046FA6880231B031340B5
:102F800004D080221203934219D02FE0BB6805338E
:102F90003B621F217B1807221A703B6A1B785BB2C9
:102FA0007A181278012191400A0052B2D24352B2EB
:102FB00013405BB2DAB23B6A1A70C0461AE0BB68D3
:102FC0000533BB6117217B1807221A70BB691B7878
:102FD0005AB27B181B78012199400B005BB2134356
:102FE0005BB2DAB2BB691A70C04603E001235B42F0
:102FF000FB64C046FB6C002B0FD17B68002B0CD010
:103000003B685A7F364B7968B868022401940424DF
:10301000009400F059F90300FB64FB6C002B5AD1BB
:103020003B681A68937820218B4393703B681A6839
:10303000937810218B4393703B681A6893787F21B3
:103040000B4093703B681A68937840218B439370D0
:103050003B681A68937804218B4393703B681B6824
:10306000BA6852789A703B681A68537A01218B4388
:1030700053723B681B68BA6852795A733B681B6885
:10308000BA6812781A703B681B68BA68D2789A716D
:103090003B681B68BA681279DA713B681B68BA68CA
:1030A00092785A703B681B68BA6892799A743B6848
:1030B000DB68BA68D1792A2299543B68DB682922F7
:1030C000002199543B68DB682822012199543B6810
:1030D000DB687A681A63FB6C1800BD4615B090BDBA
:1030E0004051000090B591B002AFF860B9607A60CD
:1030F0003B6000237B63FA68C0239B01134080225E
:103100005201934204D08022920193422DD057E085
:10311000BB68BB6227217B1804221A70BB6A1B782C
:103120005BB27A181278012191400A0052B2D24360
:1031300052B213405BB2DAB2BB6A1A70C046BB68C7
:103140003B632F217B1805221A703B6B1B785AB208
:103150007B181B78012199400B005BB213435BB2D3
:10316000DAB23B6B1A70C0462EE0BB68BB61172118
:103170007B1804221A70BB691B785AB27B181B7823
:10318000012199400B005BB213435BB2DAB2BB6919
:103190001A70C046BB683B621F217B1805221A705B
:1031A0003B6A1B785AB27B181B78012199400B00AF
:1031B0005BB213435BB2DAB23B6A1A70C04603E0FB
:1031C0000A235B427B63C0467B6B002B0FD17B687D
:1031D000002B0CD03B685A7F3A4B7968B8680624BC
:1031E00001941424009400F06FF803007B637B6B60
:1031F000002B61D13B681A68937820218B43937030
:103200003B681A68937810218B4393703B681A6867
:1032100093787F210B4093703B681A689378402124
:103220008B4393703B681A68937804218B439370A7
:103230003B681B681B79DAB23B681B6838218A43FC
:10324000D2B21A713B681A68537A01218B435372C8
:103250003B681B6800225A733B681B68BA68127887
:103260001A703B681B68BA68D2789A713B681B6811
:10327000BA681279DA713B681B68BA6892785A703A
:103280003B681B68BA6892799A743B681B68002295
:103290009A703B68DB682A22002199543B68DB68FE
:1032A0002922002199543B68DB6828220221995485
:1032B0003B68DB687A681A637B6B1800BD460FB009
:1032C00090BDC0468051000080B58AB000AFF86064
:1032D000B9603B60FB1D1A7000233B610023FB615A
:1032E000FB1D1B78002B02D0012B06D00BE0102316
:1032F000FB18180001F058F808E01023FB1818001C
:1033000001F06AF802E001235B4218E13B69002BFF
:1033100002D0BB68002B02D108235B420FE13B695E
:10332000B968180001F03CF80300BB6100237B6220
:103330000DE07B6A1B013A68D3181A685B681300BA
:103340001B02BA699A4209D37B6A01337B6230233C
:10335000FB181B787A6A9A42EBD300E0C046302310
:10336000FB181B787A6A9A4202D108235B42FB6100
:10337000FB69002B13D17B6A1B013A68D3181A68CA
:103380005B6813003B62396AB86901F009F8030011
:103390007B617B69002B02D108235B42FB61FB69E7
:1033A000002B00D0CAE03B6A5B081900B86900F046
:1033B000F7FF03007B617B690122134003D07B6927
:1033C0005B08DBB204E07B695B08DBB2013BDBB28C
:1033D000FA6893707B6A1B013A68D3181B891A003C
:1033E0001023134005D0FB681B7908221343DBB27E
:1033F00004E0FB681B7908229343DBB2FA6813717F
:103400007B6A1B013A68D3181B891A0008231340F2
:1034100005D0FB681B7910221343DBB204E0FB6884
:103420001B7910229343DBB2FA6813717B6A1B018C
:103430003A68D3181B891A000423134005D0FB688F
:103440001B7940221343DBB204E0FB681B79402266
:103450009343DBB2FA6813717B6A1B013A68D31895
:103460001B891A000123134005D0FB681B78012239
:103470001343DBB204E0FB681B7801229343DBB209
:10348000FA6813707B6A1B013A68D3181B891A000B
:103490000223134005D0FB681B7802221343DBB2E2
:1034A00004E0FB681B7802229343DBB2FA681370D6
:1034B0007B6B062B42D17B6A1B013A68D3181B89B0
:1034C0001A002023134005D0FB681B780422134305
:1034D000DBB204E0FB681B7804229343DBB2FA689A
:1034E00013707B6A1B013A68D3181B891A004023AA
:1034F000134005D0FB681B7808221343DBB204E0BD
:10350000FB681B7808229343DBB2FA6813707B6A6E
:103510001B013A68D3181B891A008023134006D078
:10352000FB68DB78802252421343DBB204E0FB6885
:10353000DB787F221340DBB2FA68D370FB69180096
:10354000BD460AB080BD80B582B000AF78607B68B0
:1035500000221A707B6800225A707B68FF229A70E2
:103560007B68F222DA707B6800221A717B68002285
:103570005A717B68FF229A717B680022DA71C0461B
:10358000BD4602B080BD80B582B000AF78607B6878
:103590001B689B78DAB27B681B68602149420A434A
:1035A000D2B29A707B685B6898477B68DB689A8DBB
:1035B0007B68DB6820210A4392B29A857B68DB68CE
:1035C00028229B5C022B0AD17B68DB689B8D1A004A
:1035D0004023134003D17B68180000F043F8C04635
:1035E000BD4602B080BD80B582B000AF78607B6818
:1035F000DB689B8D1A004023134002D17B689B68D7
:1036000098477B681A6893787F210B4093707B689A
:103610001A68937820218B4393707B68DB680022C3
:10362000DA607B68DB6823220021995400E0C04601
:103630007B681B689B781B06DB0FDBB2002BF6D187
:103640007B68180000F0C4FE7B68DB689A8D7B689D
:10365000DB6820218A4392B29A85C046BD4602B0FB
:1036600080BDFFFF80B584B000AF78607B685B6889
:1036700098477B681A68937810210B4393707B6896
:103680001A68937840210B4393707B68DB689A8DAE
:103690007B68DB6840210A4392B29A857B682122CD
:1036A0009A560E217B181A700A00BB181B787F2BC4
:1036B00009D8BB181B781A001F231A400F4B012191
:1036C00091400A001A60C0467B6822229A560F2158
:1036D0007B181A700A00BB181B787F2B09D8BB18FF
:1036E0001B781A001F231A40044B012191400A0045
:1036F0001A60C046C046BD4604B080BD00E100E08F
:1037000090B585B000AF78607B681A689378102117
:103710008B4393707B681A68937840218B43937036
:1037200000E0C0467B681B689B785B06DB0FDBB262
:10373000002BF6D17B68DB6800229A607B68DB682F
:1037400000221A717B68180000F03AFE7B68212283
:103750009A560D217B181A700A00BB181B785BB2B1
:103760001F2B1ADC0C217B18BA1812781A707B18E0
:103770001B787F2B10D87B181B781A001F2313404F
:103780004D4901229A40130080228B50BFF34F8F86
:10379000C046BFF36F8FC046C046C0467B6822223A
:1037A0009A560F217B181A700A00BB181B785BB25F
:1037B0001F2B1ADC0E217B18BA1812781A707B188E
:1037C0001B787F2B10D87B181B781A001F231340FF
:1037D000394901229A40130080228B50BFF34F8F4A
:1037E000C046BFF36F8FC046C046C0467B68DB68EB
:1037F0009B8D1A002023134002D17B689B68984759
:103800007B6821229A5609243B191A703B191B78B0
:103810005BB21F2B1ADC3B191B785BB2180000F05F
:10382000E3FD08217B183A1912781A707B181B786F
:103830007F2B0AD87B181B781A001F2313401E49C0
:1038400001229A40C0235B00CA50C046C0467B6834
:1038500022229A560B243B191A703B191B785BB233
:103860001F2B1ADC3B191B785BB2180000F0BCFD63
:103870000A217B183A1912781A707B181B787F2B53
:103880000AD87B181B781A001F2313400A4901220B
:103890009A40C0235B00CA50C046C0467B68DB68C4
:1038A0009A8D7B68DB6840218A4392B29A85C04634
:1038B000BD4605B090BDC04600E100E080B584B0D3
:1038C00000AF78607B681B689B78DAB27B681B6806
:1038D000102149420A43D2B29A707B685B689847CC
:1038E0007B68DB689A8D7B68DB6860210A4392B253
:1038F0009A857B6821229A560E217B181A700A003D
:10390000BB181B787F2B09D8BB181B781A001F2304
:103910001A40104B012191400A001A60C0467B6892
:1039200022229A560F217B181A700A00BB181B78A6
:103930007F2B09D8BB181B781A001F231A40054B90
:10394000012191400A001A60C046C046BD4604B03D
:1039500080BDC04600E100E090B587B000AF786060
:103960007B689B6898477B681B689B78DAB27B68AA
:103970001B680F210A40D2B29A7000E0C0467B68F3
:103980001B689B78DBB21A00C0231340F6D17B681A
:10399000DB6800229A607B68DB6800221A717B6812
:1039A000DB680022DA607B68DB68232200219954FF
:1039B0007B68180000F00CFD7B68180000F000FD2B
:1039C0007B6821229A560D217B181A700A00BB18B9
:1039D0001B785BB21F2B1ADC0C217B18BA181278EB
:1039E0001A707B181B787F2B10D87B181B781A0055
:1039F0001F2313406F4901229A40130080228B50ED
:103A0000BFF34F8FC046BFF36F8FC046C046C0465E
:103A10007B6822229A560F217B181A700A00BB1865
:103A20001B785BB21F2B1ADC0E217B18BA18127898
:103A30001A707B181B787F2B10D87B181B781A0004
:103A40001F2313405B4901229A40130080228B50B0
:103A5000BFF34F8FC046BFF36F8FC046C046C0460E
:103A60007B6820229A5611217B181A700A00BB1815
:103A70001B785BB21F2B1ADC10217B18BA18127846
:103A80001A707B181B787F2B10D87B181B781A00B4
:103A90001F231340474901229A40130080228B5074
:103AA000BFF34F8FC046BFF36F8FC046C046C046BE
:103AB0007B6820229A5613243B191A703B191B78F5
:103AC0005BB21F2B1ADC3B191B785BB2180000F0AD
:103AD0008BFC12217B183A1912781A707B181B780C
:103AE0007F2B0AD87B181B781A001F2313403149FB
:103AF00001229A40C0235B00CA50C046C0467B6882
:103B000021229A5615243B191A703B191B785BB277
:103B10001F2B1ADC3B191B785BB2180000F064FC09
:103B200014217B183A1912781A707B181B787F2B96
:103B30000AD87B181B781A001F2313401D49012245
:103B40009A40C0235B00CA50C046C0467B68222210
:103B50009A5617243B191A703B191B785BB21F2B1E
:103B60001ADC3B191B785BB2180000F03DFC1621F3
:103B70007B183A1912781A707B181B787F2B0AD899
:103B80007B181B781A001F2313400A4901229A4010
:103B9000C0235B00CA50C046C0467B68DB689A8D74
:103BA0007B68DB6860218A4392B29A85C046BD4635
:103BB00007B090BD00E100E090B585B000AF78603F
:103BC00039603B68DB6B002B00D0C7E03B682022EC
:103BD0009B561F2B00DDC1E03B68202298563B68B6
:103BE000596A3B68DB6C1A0000F016FC03000133D5
:103BF00002D101235B42B2E03B68202299563B6828
:103C00001B6B0E203A181170BB603B181B787F2B82
:103C100029D8554A3B181B785BB29B08C0339B00E0
:103C20009B583A181278110003220A40D200FF2153
:103C300091400A00D2431A401100BB689B01FF2249
:103C40001A4004003B181B78180003230340DB00D4
:103C50009A4045483B191B785BB29B080A43C03326
:103C60009B001A5033E0414A0E203B181B78190084
:103C70000F230B40083B9B0806339B00D3180433EB
:103C80001B683A181278110003220A40D200FF2163
:103C900091400A00D2431A401100BB689B01FF22E9
:103CA0001A4004003B181B78180003230340DB0074
:103CB0009A402E483B191B781C000F232340083BD9
:103CC0009B080A4306339B00C31804331A60C0469E
:103CD0003B6820229A560F217B181A707B181B789C
:103CE0007F2B13D8204A7B181B785BB29B08C0330C
:103CF0009B009A587B181B78190003230B40DB00AC
:103D0000DA4013009B090322134018E0174A0F20E2
:103D10003B181B7819000F230B40083B9B08063308
:103D20009B00D31804331A683B181B78190003232F
:103D30000B40DB00DA4013009B09032213403A6872
:103D4000126B934202D001235B4208E07B680022A1
:103D50009B5E022213431AB27B681A80002318006C
:103D6000BD4605B090BDC04600E100E000ED00E0BA
:103D700090B587B000AF786039603B6821229B56D0
:103D80001F2B04DC3B6822229B561F2B05DD3B6862
:103D90005B6C002B01D100237CE13B68212298560B
:103DA0003B68996A3B681B6D1A0000F035FB030005
:103DB000013302D101235B426CE13B682122995619
:103DC0003B685B6B16203A1811703B613B181B78FF
:103DD0007F2B29D8B14A3B181B785BB29B08C033B4
:103DE0009B009B583A181278110003220A40D20017
:103DF000FF2191400A00D2431A4011003B699B0108
:103E0000FF221A4004003B181B78180003230340CC
:103E1000DB009A40A1483B191B785BB29B080A4320
:103E2000C0339B001A5033E09D4A16203B181B7884
:103E300019000F230B40083B9B0806339B00D31847
:103E400004331B683A181278110003220A40D2008A
:103E5000FF2191400A00D2431A4011003B699B01A7
:103E6000FF221A4004003B181B781800032303406C
:103E7000DB009A408A483B191B781C000F23234023
:103E8000083B9B080A4306339B00C31804331A609F
:103E9000C0463B6821229A5617217B181A707B185E
:103EA0001B787F2B13D87D4A7B181B785BB29B084D
:103EB000C0339B009A587B181B78190003230B40D2
:103EC000DB00DA4013009B090322134018E0744A18
:103ED00017203B181B7819000F230B40083B9B0849
:103EE00006339B00D31804331A683B181B7819005B
:103EF00003230B40DB00DA4013009B09032213402D
:103F00003A68526B934202D001235B42C2E03B68A5
:103F1000222298563B68D96A3B685B6D1A0000F014
:103F20007BFA0300013302D101235B42B2E03B681C
:103F3000222299563B689B6B0E203A181170BB6089
:103F40003B181B787F2B29D8544A3B181B785BB24F
:103F50009B08C0339B009B583A181278110003222B
:103F60000A40D200FF2191400A00D2431A401100BA
:103F7000BB689B01FF221A4004003B181B78180005
:103F800003230340DB009A4044483B191B785BB293
:103F90009B080A43C0339B001A5033E0404A0E206E
:103FA0003B181B7819000F230B40083B9B08063376
:103FB0009B00D31804331B683A18127811000322AF
:103FC0000A40D200FF2191400A00D2431A4011005A
:103FD000BB689B01FF221A4004003B181B781800A5
:103FE00003230340DB009A402D483B191B781C003B
:103FF0000F232340083B9B080A4306339B00C3184A
:1040000004331A60C0463B6822229A560F217B185F
:104010001A707B181B787F2B13D8204A7B181B78CB
:104020005BB29B08C0339B009A587B181B78190021
:1040300003230B40DB00DA4013009B0903221340EB
:1040400018E0174A0F203B181B7819000F230B406C
:10405000083B9B0806339B00D31804331A683B18AF
:104060001B78190003230B40DB00DA4013009B0987
:10407000032213403A68926B934202D001235B42C1
:1040800008E07B6800229B5E042213431AB27B681F
:104090001A8000231800BD4607B090BD00E100E083
:1040A00000ED00E080B400AFFEE7FFFF80B586B012
:1040B00000AF00F03FF81A4B7B601A4B3B611A4B84
:1040C000FB601A4A164BD31A7B6107E07B69013B00
:1040D0007B617A687B69134400221A707B69002B2C
:1040E000F4D1134A104BD31A7B610023BB600CE060
:1040F0003B691A78FB681A70BB680133BB60FB68C8
:104100000133FB603B6901333B61BA687B699A42CA
:10411000EED3FCF789FD00BF1837BD4680BD00BF58
:10412000603A01207053000000080020786E0120E2
:10413000D411002080B500AFAFF3008000F002F88A
:1041400000BF80BD80B500AF144B4AF20352A3F804
:10415000FE2300F027F8124B002283F81C210F4B9E
:1041600000221A620D4B032283F826200B4B93F892
:104170002134C3F3C003DBB2012B01D000F0BCF843
:1041800000F036F800F062F800F08CF8034B4FF4C2
:104190002542A3F8FE2300BF80BD00BF00E0014020
:1041A00000C0014080B400AF104B382283F81324C4
:1041B0000E4B052283F8A2200C4B002283F83220FC
:1041C00000BF0A4B93F83230DBB2002BF9D100BFAD
:1041D000064B93F83C30C3F3C003DBB2002BF7D09F
:1041E00000BF00BFBD4680BC704700BF00E001407B
:1041F00080B400AF144B93F83630C3F30003DBB246
:10420000002B1CD100BF104B93F83C30C3F30003CC
:10421000DBB2002BF7D00C4B012283F8362000BF15
:10422000094B93F83630DBB2012BF9D100BF064BB6
:1042300093F83C30C3F30003DBB2012BF7D000BF8F
:10424000BD4680BC704700BF00E0014080B584B02F
:1042500000AF4223FB604D23BB6040F211437B6003
:1042600040F2C5433B600E4B93F89034C3F3000318
:10427000DBB2012B10D1386800F074F8084B002233
:1042800083F8902400BF064B93F89034DBB2002BE8
:10429000F9D1786800F066F800BF1037BD4680BDE0
:1042A00000E0014080B582B000AF114B7B6040F26E
:1042B000C5433B600F4B93F88034C3F30003DBB27C
:1042C000002B10D1786800F04DF80A4B012283F8DA
:1042D000802400BF074B93F88034DBB2012BF9D167
:1042E000386800F03FF800BF0837BD4680BD00BF0A
:1042F00000366E0100E0014080B400AF184A938997
:1043000043F400439381164A92F800346FF3C713C5
:1043100082F80034124A92F892306FF3C71382F891
:1043200092300F4B052283F8202403E00C4B05222A
:1043300083F820240A4B93F82034DBB2052BF5D107
:1043400020BF00E020BF064B93F82134C3F3C00325
:10435000DBB2012BF6D100BF00BFBD4680BC704769
:1043600000E00140A0F101000028FBD1704700BF30
:10437000F8B5C046F8BC08BC9E467047F8B5C046C4
:10438000F8BC08BC9E4670475FF800F0D9110020C9
:104390005FF800F0712800205FF800F081C2002073
:1043A0005FF800F0699000205FF800F00918002025
:1043B0005FF800F0C5C000205FF800F0593600201B
:1043C0005FF800F0FD8100205FF800F07921002007
:1043D0005FF800F0418100205FF800F0D518002060
:1043E0005FF800F0ADC100205FF800F0E120002090
:1043F0005FF800F0E52700205FF800F05121002071
:104400005FF800F001C000205FF800F015BF002049
:104410005FF800F0693300205FF800F00920002009
:10442000982F8A4291443771CFFBC0B5A5DBB5E91F
:104430005BC25639F111F159A4823F92D55E1CAB93
:1044400098AA07D8015B8312BE853124C37D0C5521
:10445000745DBE72FEB1DE80A706DC9B74F19BC169
:10446000C1699BE48647BEEFC69DC10FCCA10C2459
:104470006F2CE92DAA84744ADCA9B05CDA88F9763D
:1044800052513E986DC631A8C82703B0C77F59BFA7
:10449000F30BE0C64791A7D55163CA0667292914D3
:1044A000850AB72738211B2EFC6D2C4D130D385370
:1044B00054730A65BB0A6A762EC9C281852C729232
:1044C000A1E8BFA24B661AA8708B4BC2A3516CC760
:1044D00019E892D1240699D685350EF470A06A1099
:1044E00016C1A419086C371E4C774827B5BCB034E8
:1044F000B30C1C394AAAD84E4FCA9C5BF36F2E6886
:10450000EE828F746F63A5781478C8840802C78C14
:10451000FAFFBE90EB6C50A4F7A3F9BEF27871C617
:104520003818002050180020681800208218002039
:104530009A180020041900201C19002034190020AA
:104540004E19002066190020686173682D73686138
:1045500032353600426F6F74207374617475732046
:10456000686173206E6F74206368616E6765642094
:10457000666F722031206D69747574652E0D0000B0
:1045800073797374656D206572726F722E0D000001
:10459000525F464C4153485F4F70656E2829207228
:1045A000657475726E73206572726F722E20256449
:1045B0002E0D0A00667775705F73746174655F6DA8
:1045C0006F6E69746F72696E675F6F70656E2829B0
:1045D0002072657475726E73206572726F722E2010
:1045E00025642E0D0A0000002D2D2D2D2D2D2D2D95
:1045F0002D2D2D2D2D2D2D2D2D2D2D2D2D2D2D2DEB
:104600002D2D2D2D2D2D2D2D2D2D2D2D2D2D2D2DDA
:104610002D2D2D2D2D2D2D2D2D0D0000524520320F
:1046200035364B422073656375726520626F6F7417
:104630002070726F6772616D0D00000043686563E2
:104640006B696E6720666C61736820524F4D2073F2
:1046500074617475732E0D0062616E6B203020736F
:104660007461747573203D2030782578205B257344
:104670005D0D0A0062616E6B203120737461747588
:1046800073203D2030782578205B25735D0D0A006E
:10469000525F5359535F54494D455F526567697383
:1046A000746572506572696F64696343616C6C62B2
:1046B00061636B28292072657475726E7320657250
:1046C000726F722E2025642E0D0A0000696E7465CB
:1046D000677269747920636865636B2073636865CA
:1046E0006D65203D20252D2E3332730D0A0000000C
:1046F00062616E6B312874656D706F7261727920C2
:104700006172656129206F6E20636F646520666C3D
:1047100061736820696E7465677269747920636873
:1047200065636B2E2E2E00004F4B0D004E470D0083
:10473000757064617465204C4946454359434C4546
:104740005F53544154452066726F6D205B25735D45
:1047500020746F205B25735D0D0A000062616E6B33
:10476000312874656D706F72617279206172656154
:104770002920626C6F636B3020657261736520283D
:10478000746F20757064617465204C4946454359C7
:10479000434C455F5354415445292E2E2E000000B2
:1047A000525F464C4153485F45726173652829202A
:1047B00072657475726E73206572726F722E202529
:1047C000642E0D0A0000000062616E6B3128746572
:1047D0006D706F7261727920617265612920626CFF
:1047E0006F636B302077726974652028746F207551
:1047F0007064617465204C4946454359434C455F9C
:104800005354415445292E2E2E000000525F464C31
:104810004153485F57726974652829207265747521
:10482000726E73206572726F722E2025642E0D0ACF
:104830000000000045726173652062616E6B302874
:10484000657865637574652061726561292E2E2E09
:104850000000000045726173652062616E6B312853
:1048600074656D706F726172792061726561292E55
:104870002E2E0000436F70792062616E6B312874B8
:10488000656D706F72617279206172656129207443
:104890006F20626C6F636B302077726974652028BB
:1048A000657865637574652061726561292E2E2EA9
:1048B0000000000062616E6B302865786563757476
:1048C00065206172656129206F6E20636F646520C9
:1048D000666C61736820696E7465677269747920AB
:1048E000636865636B2E2E2E00000000456E642009
:1048F0004F66204C6966652070726F636573732024
:1049000073746172742E0D00657261736520696E37
:104910007374616C6C20617265612028636F6465DB
:1049200020666C617368293A200000004E472E0D06
:1049300000000000456E64204F66204C69666520CB
:1049400070726F636573732066696E6973686564FE
:104950002E0D0000737461727420696E7374616C43
:104960006C696E6720757365722070726F67726113
:104970006D2E0D00757365722070726F6772616DB8
:1049800020696E7374616C6C6174696F6E2066610E
:10499000696C65642E0D00007573657270726F67C7
:1049A0002E7273750000000073656E6420222573FB
:1049B000222076696120554152542E0D0A000000D4
:1049C000696E7374616C6C696E67206669726D776D
:1049D0006172652E2E2E2564252825642F25644BB3
:1049E00042292E0D00000000636F6D706C657465C8
:1049F0006420696E7374616C6C696E67206669729D
:104A00006D776172652E0D00636F6D706C657465F6
:104A10006420696E7374616C6C696E6720636F6E7D
:104A2000737420646174612E0D000000736F6674EE
:104A3000776172652072657365742E2E2E0D0000ED
:104A4000666174616C206572726F72206F6363754A
:104A5000727265642E0D0000436F646520666C61A0
:104A6000736820697320636F6D706C6574656C7911
:104A70002062726F6B656E2E0D000000506C6561D8
:104A8000736520657261736520616C6C20636F646F
:104A90006520666C6173682E0D000000416E642C09
:104AA0002077726974652073656375726520626F23
:104AB0006F74207573696E672064656275676765DA
:104AC000722E0D006A756D7020746F20757365729B
:104AD0002070726F6772616D0D000000696C6C650B
:104AE00067616C20666C61736820726F6D207374EF
:104AF0006174757320636F646520307825782E0D9E
:104B00000A000000667775705F73746174655F6D8D
:104B10006F6E69746F72696E675F636C6F7365281F
:104B200029206572726F722E0D000000E847002088
:104B3000C6380020E8470020E8470020E84700206A
:104B4000E8470020E8470020283A0020283A0020C3
:104B5000283A0020283A0020283A00200642002067
:104B6000E8470020E8470020E8470020E847002009
:104B7000E8470020E8470020E8470020E8470020F9
:104B80000642002006420020064200200642002085
:104B90000642002006420020E8470020E8470020A7
:104BA000E8470020E8470020064200200642002097
:104BB00006420020283A0020283A0020283A002007
:104BC000283A0020283A0020283A0020283A0020DD
:104BD000283A0020283A0020283A0020283A0020CD
:104BE00006420020603A0020043C0020503B002098
:104BF000043C0020D03B0020983C0020183F0020BF
:104C0000183F0020183F0020183F0020183F0020C8
:104C1000183F0020183F0020183F0020183F0020B8
:104C2000183F0020183F0020183F0020183F0020A8
:104C3000183F0020183F0020183F0020183F002098
:104C4000183F0020183F0020183F0020183F002088
:104C5000183F0020F63F0020DE3E0020F63F0020F7
:104C60008A3D0020F63F0020FE3D002054400020F9
:104C700002420020024200200242002002420020A4
:104C80000242002002420020024200200242002094
:104C90000242002002420020024200200242002084
:104CA0000242002002420020024200200242002074
:104CB0000242002002420020024200200242002064
:104CC0000242002002420020024200200242002054
:104CD0000242002002420020024200200242002044
:104CE0000242002002420020024200200242002034
:104CF000E2410020A6400020E24100205E41002069
:104D000038420020E2470020E2470020E24700202E
:104D1000E2470020E2470020E2470020E24700206F
:104D2000E24700202C450020A2420020FA42002049
:104D3000E24700202C4500205C4300209A4A0020D6
:104D4000124B0020A24A0020124B0020124B0020E0
:104D5000AA4A0020124B0020B24A0020124B002029
:104D6000BA4A0020124B0020C24A0020124B0020F9
:104D7000CA4A0020124B0020124B0020124B002088
:104D8000D24A0020124B0020124B0020124B002070
:104D9000DA4A0020124B0020124B0020E24A002089
:104DA000124B0020FA4A0020124B0020024B002038
:104DB000124B00200A4B0020124B0020EA4A002030
:104DC000124B0020F24A0020667775705F666C61B6
:104DD00073685F77726974652829207265747572CB
:104DE0006E73206572726F722E2025642E0D0A007C
:104DF000666C6173685F77726974652063616C6C5F
:104E00006261636B2072657475726E732065727275
:104E10006F722E2025642E0D0A00000066777570D3
:104E20005F666C6173685F657261736528292072C3
:104E3000657475726E73206572726F722E202564B0
:104E40002E0D0A00666C6173685F65726173652080
:104E500063616C6C6261636B2072657475726E73F2
:104E6000206572726F722E2025642E0D0A00FFFFDE
:104E70004C4946454359434C455F53544154455F63
:104E8000424C414E4B0000000000000000000000BA
:104E90000000000000000000000000000000000012
:104EA0000000000000000000000000000000000002
:104EB0004C4946454359434C455F53544154455F23
:104EC00054455354494E47000000000000000000C4
:104ED00000000000000000000000000000000000D2
:104EE00000000000000000000000000000000000C2
:104EF0004C4946454359434C455F53544154455FE3
:104F0000494E5354414C4C494E47000000000000AC
:104F10000000000000000000000000000000000091
:104F20000000000000000000000000000000000081
:104F30004C4946454359434C455F53544154455FA2
:104F400056414C49440000000000000000000000F1
:104F50000000000000000000000000000000000051
:104F60000000000000000000000000000000000041
:104F70004C4946454359434C455F53544154455F62
:104F8000494E56414C49440000000000000000001A
:104F90000000000000000000000000000000000011
:104FA0000000000000000000000000000000000001
:104FB0004C4946454359434C455F53544154455F22
:104FC000454F4C0000000000000000000000000001
:104FD00000000000000000000000000000000000D1
:104FE00000000000000000000000000000000000C1
:104FF0004C4946454359434C455F53544154455FE2
:10500000554E4B4E4F574E00000000000000000070
:105010000000000000000000000000000000000090
:105020000000000000000000000000000000000080
:1050300020520020C651002020520020C4500020E1
:10504000A4500020E6500020085100204C510020C0
:10505000A0510020D45100208E6400201C65002047
:105060003E650020946500208A650020030200014F
:10507000060000000000000010000000000000001A
:1050800008000000000000000C000000000000000C
:1050900010000000000000000400000000000000FC
:1050A00018000000000000001100000000000000D7
:1050B00020000000000000000D00000000000000C3
:1050C000400000000000000005000000000000009B
:1050D000600000000000000012000000000000005E
:1050E00080000000000000000E0000000000000032
:1050F00000010000000000000600000000000000A9
:10510000800100000000000013000000000000000B
:1051100000020000000000000F000000000000007E
:105120000004000000000000070000000000000074
:105130000008000000000000030000000000000064
:10514000040000000000000000000000000000005B
:10515000100000000000000001000000000000003E
:1051600040000000000000000200000000000000FD
:10517000000100000000000003000000000000002B
:10518000400000000000000080000000000000005F
:105190008000000000000000A000000000000000EF
:1051A000BA00000000000000000000000000000045
:1051B000000100000000000081000000000000006D
:1051C000740100000000000040000000000000002A
:1051D0000002000000000000A1000000000000002C
:1051E000E8020000000000000100000000000000D4
:1051F0000004000000000000820000000000000029
:10520000D005000000000000410000000000000088
:105210000008000000000000A200000000000000E4
:10522000A00B0000000000000200000000000000D1
:1052300000100000000000008300000000000000DB
:1052400040170000000000004200000000000000C5
:105250000020000000000000A3000000000000008B
:10526000802E00000000000003000000000000008D
:1052700000400000000000002300000000000000CB
:10528000005D00000000000043000000000000007E
:105290000080000000000000E300000000000000AB
:1052A00000BA000000000000C30000000000000081
:1052B000000001000000000063000000000000008A
:1052C000E0260000741E0000EC1E0000B41F000069
:1052D0002C2100002C21000074200000E02600009A
:1052E000E0260000E0260000E0260000E0260000A6
:1052F000E0260000E0260000E0260000E026000096
:1053000034210000E0260000E026000046210000D5
:10531000C0210000F8210000BA220000E0260000B1
:105320003424000010250000142600007C23000017
:10533000E91400001D150000691300008D13000022
:10534000A5130000CD130000F11300001514000098
:105350003D140000551400006D140000911400006D
:08536000C1140000A9140000B3
:08536800406400200100000078
:10537000010000000000010000800200FFFF0000AB
:1053800000000010000000102008002000000000B5
:10539000000000000C0B0020740B0020DC0B002030
:1053A00000000000000000000000000000000000FD
:1053B00000000000000000000000000000000000ED
:1053C00000000000000000000000000000000000DD
:1053D00000000000000000000000000000000000CD
:1053E00000000000000000000000000000000000BD
:1053F00000000000000000000000000000000000AD
:10540000000000000000000000000000000000009C
:10541000000000000000000000000000000000008C
:10542000000000000000000000000000000000007C
:10543000000000000000000001000000000000006B
:105440000E33CDAB34126DE6ECDE05000B00000030
:10545000000000000000000000000000000000004C
:10546000000000000000000000000000000000003C
:10547000000000000000000000000000000000002C
:10548000000000000000000000000000000000001C
:1057B0000000000000000000506E0120000000000A
:1057C000000000004C0C00204C0C0020540C002069
:1057D000540C00205C0C00205C0C0020640C0020A9
:1057E000640C00206C0C00206C0C0020740C002059
:1057F000740C00207C0C00207C0C0020840C002009
:10580000840C00208C0C00208C0C0020940C0020B8
:10581000940C00209C0C00209C0C0020A40C002068
:10582000A40C0020AC0C0020AC0C0020B40C002018
:10583000B40C0020BC0C0020BC0C0020C40C0020C8
:10584000C40C0020CC0C0020CC0C0020D40C002078
:10585000D40C0020DC0C0020DC0C0020E40C002028
:10586000E40C0020EC0C0020EC0C0020F40C0020D8
:10587000F40C0020FC0C0020FC0C0020040D002087
:10588000040D00200C0D00200C0D0020140D002034
:10589000140D00201C0D00201C0D0020240D0020E4
:1058A000240D00202C0D00202C0D0020340D002094
:1058B000340D00203C0D00203C0D0020440D002044
:1058C000440D00204C0D00204C0D0020540D0020F4
:1058D000540D00205C0D00205C0D0020640D0020A4
:1058E000640D00206C0D00206C0D0020740D002054
:1058F000740D00207C0D00207C0D0020840D002004
:10590000840D00208C0D00208C0D0020940D0020B3
:10591000940D00209C0D00209C0D0020A40D002063
:10592000A40D0020AC0D0020AC0D0020B40D002013
:10593000B40D0020BC0D0020BC0D0020C40D0020C3
:10594000C40D0020CC0D0020CC0D0020D40D002073
:10595000D40D0020DC0D0020DC0D0020E40D002023
:10596000E40D0020EC0D0020EC0D0020F40D0020D3
:10597000F40D0020FC0D0020FC0D0020040E002082
:10598000040E00200C0E00200C0E0020140E00202F
:10599000140E00201C0E00201C0E0020240E0020DF
:1059A000240E00202C0E00202C0E0020340E00208F
:1059B000340E00203C0E00203C0E0020440E00203F
:1059C000440E00204C0E00204C0E0020540E0020EF
:1059D000540E00205C0E00205C0E0020640E00209F
:1059E000640E00206C0E00206C0E0020740E00204F
:1059F000740E00207C0E00207C0E0020840E0020FF
:105A0000840E00208C0E00208C0E0020940E0020AE
:105A1000940E00209C0E00209C0E0020A40E00205E
:105A2000A40E0020AC0E0020AC0E0020B40E00200E
:105A3000B40E0020BC0E0020BC0E0020C40E0020BE
:105A4000C40E0020CC0E0020CC0E0020D40E00206E
:105A5000D40E0020DC0E0020DC0E0020E40E00201E
:105A6000E40E0020EC0E0020EC0E0020F40E0020CE
:105A7000F40E0020FC0E0020FC0E0020040F00207D
:105A8000040F00200C0F00200C0F0020140F00202A
:105A9000140F00201C0F00201C0F0020240F0020DA
:105AA000240F00202C0F00202C0F0020340F00208A
:105AB000340F00203C0F00203C0F0020440F00203A
:105AC000440F00204C0F00204C0F0020540F0020EA
:105AD000540F00205C0F00205C0F0020640F00209A
:105AE000640F00206C0F00206C0F0020740F00204A
:105AF000740F00207C0F00207C0F0020840F0020FA
:105B0000840F00208C0F00208C0F0020940F0020A9
:105B1000940F00209C0F00209C0F0020A40F002059
:105B2000A40F0020AC0F0020AC0F0020B40F002009
:105B3000B40F0020BC0F0020BC0F0020C40F0020B9
:105B4000C40F0020CC0F0020CC0F0020D40F002069
:105B5000D40F0020DC0F0020DC0F0020E40F002019
:105B6000E40F0020EC0F0020EC0F0020F40F0020C9
:105B7000F40F0020FC0F0020FC0F00200410002078
:105B8000041000200C1000200C1000201410002025
:105B9000141000201C1000201C10002024100020D5
:105BA000241000202C1000202C1000203410002085
:105BB000341000203C1000203C1000204410002035
:105BC00044100020FFFFFFFF000002004300000020
:105BD00000000000000000000000000000000000C5
:105BE0000000000000000000000000004300000072
:105BF00000000000000000000000000000000000A5
:105C00000000000000000000000000004300000051
:105C10000000000000000000000000000000000084
:105C20000000000000000000000000004300000031
:105C30000000000000000000000000000000000064
:105C40000000000000000000000000004300000011
:105C50000000000000000000000000000000000044
:105C600000000000000000000000000043000000F1
:105C70000000000000000000000000000000000024
:105C800000000000000000000000000043000000D1
:105C90000000000000000000000000000000000004
:105CA000000000000000000000000000C5360120D8
:105CB0002D35012000000000F0360120E8340120DD
:105CC000D8300120D8300120D8300120D830012030
:105CD000D8300120D8300120D8300120D830012020
:105CE000D8300120FFFFFFFFFFFFFFFFFFFFFFFF97
:105CF000FFFF00000100415343494900000000003C
:105D00000000000000000000000000000000000093
:105D1000000000000000415343494900000000001A
:105D20000000000000000000000000000000000073
:105D3000000000000000000019E7002065050000D9
:045D40003D0500001D
:105D440080B582B000AF02F039FB03007B607B6852
:105D5400002B02D103F038FBFEE77B68012B00D156
:105D6400FEE77B68032B00D1FEE77B68022B00D1A2
:105D7400E9E7FEE780B500AF00F07EF90300032BEE
:105D840000D185E000DDC9E0022B4DD000DDC5E087
:105D9400002B03D0012B00D1C3E0BFE0634AA02352
:105DA400D35C9B079B0FDBB2002B02D001235B4229
:105DB400B9E0012001F072FA5C4A93895C490B4313
:105DC40093815A498023DA008B5C7F2003408B54F3
:105DD400564992228B5C7F2003408B54534A842380
:105DE400DB000421D154012001F0F6F94F4A842349
:105DF400DB00D35CDBB2042B02D001235B4292E0D4
:105E040020BF00E020BF494A4A4BD35C1B07DB0F8D
:105E1400DBB2002BF6D1454A464BD35CDB06DB0FE5
:105E2400DBB2002BEED17DE0C046404AA023D35C18
:105E3400DB06DB0FDBB2002BF7D1012001F02EFAD9
:105E44003A4A8423DB000021D154012001F0C4F933
:105E5400364A8423DB00D35CDBB2002B02D001235F
:105E64005B4260E0012001F019FA3049A0228B5C0A
:105E7400032083438B54012001F0AEF9C0462B4A22
:105E8400A023D35CDB06DB0FDBB2002BF7D149E0A8
:105E9400264AA023D35C9B079B0FDBB2002B02D0C6
:105EA40001235B423FE0012001F0F8F91F4A938986
:105EB4001F490B4393811D498023DA008B5C7F20AB
:105EC40003408B54194992228B5C7F2003408B54EE
:105ED400164A8423DB000421D154012001F07CF90B
:105EE400124A8423DB00D35CDBB2042B02D00123EF
:105EF4005B4218E020BF00E020BF0C4A0D4BD35C8E
:105F04001B07DB0FDBB2002BF6D1084A094BD35C2D
:105F1400DB06DB0FDBB2002BEED103E001235B4297
:105F240001E0C04600231800BD4680BD00E00140EA
:105F34000080FFFF2104000080B500AF01F07EFC6B
:105F44000300012B02D101235B428BE000F094F8A3
:105F54000300032B3BD000DD7FE0012B03D0022B99
:105F640000D17DE079E0C046404AA023D35CDB0643
:105F7400DB0FDBB2002BF7D1012001F08FF93B4A94
:105F84008423DB000021D154012001F025F9374A94
:105F94008423DB00D35CDBB2002B02D001235B4201
:105FA40060E0012001F07AF93049A0228B5C0320E3
:105FB40003438B54012001F00FF9C0462B4AA02360
:105FC400D35CDB06DB0FDBB2002BF7D149E0274AB9
:105FD400A023D35C9B079B0FDBB2032B02D00123CE
:105FE4005B423FE0012001F059F9204A938920499E
:105FF4000B4393811D498023DA008B5C7F2003408F
:106004008B541A4992228B5C7F2003408B54174A8D
:106014008423DB000421D154012001F0DDF8134A6C
:106024008423DB00D35CDBB2042B02D001235B426C
:1060340018E020BF00E020BF0C4A0E4BD35C1B07C6
:10604400DB0FDBB2002BF6D1084A0A4BD35CDB062C
:10605400DB0FDBB2002BEED103E001235B4201E056
:10606400C04600231800BD4680BDC04600E0014084
:106074000080FFFF2104000080B582B000AFFB1D4B
:1060840000221A70164A174BD35C1B07DB0FDBB2D6
:10609400012B03D1FB1D00221A701AE0104A114B88
:1060A400D35CDB06DB0FDBB2012B03D1FB1D032228
:1060B4001A700EE00A4AA023D35C9B079B0FDBB245
:1060C400002B03D1FB1D01221A7002E0FB1D0222EA
:1060D4001A70FB1D1B781800BD4602B080BDC04677
:1060E40000E001402104000080B582B000AF00232D
:1060F4007B60464A3623D35CDB07DB0FDBB2012B24
:1061040007D0424A3C23D35CDB07DB0FDBB2002B16
:1061140002D101235B4274E03C4A3D4BD35CDB0675
